{
  "contractName": "Identity",
  "abi": [
    {
      "inputs": [
        {
          "internalType": "address",
          "name": "",
          "type": "address"
        }
      ],
      "name": "users",
      "outputs": [
        {
          "internalType": "string",
          "name": "name",
          "type": "string"
        },
        {
          "internalType": "string",
          "name": "email",
          "type": "string"
        },
        {
          "internalType": "bool",
          "name": "isVerified",
          "type": "bool"
        }
      ],
      "stateMutability": "view",
      "type": "function"
    },
    {
      "inputs": [
        {
          "internalType": "address",
          "name": "",
          "type": "address"
        }
      ],
      "name": "verifiers",
      "outputs": [
        {
          "internalType": "bool",
          "name": "",
          "type": "bool"
        }
      ],
      "stateMutability": "view",
      "type": "function"
    },
    {
      "inputs": [
        {
          "internalType": "string",
          "name": "_name",
          "type": "string"
        },
        {
          "internalType": "string",
          "name": "_email",
          "type": "string"
        }
      ],
      "name": "register",
      "outputs": [],
      "stateMutability": "nonpayable",
      "type": "function"
    },
    {
      "inputs": [
        {
          "internalType": "address",
          "name": "_user",
          "type": "address"
        }
      ],
      "name": "verify",
      "outputs": [],
      "stateMutability": "nonpayable",
      "type": "function"
    },
    {
      "inputs": [
        {
          "internalType": "address",
          "name": "_verifier",
          "type": "address"
        }
      ],
      "name": "addVerifier",
      "outputs": [],
      "stateMutability": "nonpayable",
      "type": "function"
    },
    {
      "inputs": [
        {
          "internalType": "address",
          "name": "_user",
          "type": "address"
        }
      ],
      "name": "getUser",
      "outputs": [
        {
          "internalType": "string",
          "name": "",
          "type": "string"
        },
        {
          "internalType": "string",
          "name": "",
          "type": "string"
        },
        {
          "internalType": "bool",
          "name": "",
          "type": "bool"
        }
      ],
      "stateMutability": "view",
      "type": "function"
    }
  ],
  "bytecode": "0x608060405234801561000f575f80fd5b50610cd48061001d5f395ff3fe608060405234801561000f575f80fd5b5060043610610060575f3560e01c80633ffbd47f1461006457806363a9c3d7146100805780636c8244871461009c5780636f77926b146100cc5780639000b3d6146100fe578063a87430ba1461011a575b5f80fd5b61007e60048036038101906100799190610779565b61014c565b005b61009a60048036038101906100959190610849565b6101f5565b005b6100b660048036038101906100b19190610849565b6102d8565b6040516100c3919061088e565b60405180910390f35b6100e660048036038101906100e19190610849565b6102f5565b6040516100f593929190610921565b60405180910390f35b61011860048036038101906101139190610849565b610498565b005b610134600480360381019061012f9190610849565b6104ef565b60405161014393929190610921565b60405180910390f35b60405180606001604052808381526020018281526020015f15158152505f803373ffffffffffffffffffffffffffffffffffffffff1673ffffffffffffffffffffffffffffffffffffffff1681526020019081526020015f205f820151815f0190816101b89190610b67565b5060208201518160010190816101ce9190610b67565b506040820151816002015f6101000a81548160ff0219169083151502179055509050505050565b60015f3373ffffffffffffffffffffffffffffffffffffffff1673ffffffffffffffffffffffffffffffffffffffff1681526020019081526020015f205f9054906101000a900460ff1661027e576040517f08c379a000000000000000000000000000000000000000000000000000000000815260040161027590610c80565b60405180910390fd5b60015f808373ffffffffffffffffffffffffffffffffffffffff1673ffffffffffffffffffffffffffffffffffffffff1681526020019081526020015f206002015f6101000a81548160ff02191690831515021790555050565b6001602052805f5260405f205f915054906101000a900460ff1681565b6060805f805f808673ffffffffffffffffffffffffffffffffffffffff1673ffffffffffffffffffffffffffffffffffffffff1681526020019081526020015f206040518060600160405290815f8201805461035090610991565b80601f016020809104026020016040519081016040528092919081815260200182805461037c90610991565b80156103c75780601f1061039e576101008083540402835291602001916103c7565b820191905f5260205f20905b8154815290600101906020018083116103aa57829003601f168201915b505050505081526020016001820180546103e090610991565b80601f016020809104026020016040519081016040528092919081815260200182805461040c90610991565b80156104575780601f1061042e57610100808354040283529160200191610457565b820191905f5260205f20905b81548152906001019060200180831161043a57829003601f168201915b50505050508152602001600282015f9054906101000a900460ff1615151515815250509050805f015181602001518260400151935093509350509193909250565b6001805f8373ffffffffffffffffffffffffffffffffffffffff1673ffffffffffffffffffffffffffffffffffffffff1681526020019081526020015f205f6101000a81548160ff02191690831515021790555050565b5f602052805f5260405f205f91509050805f01805461050d90610991565b80601f016020809104026020016040519081016040528092919081815260200182805461053990610991565b80156105845780601f1061055b57610100808354040283529160200191610584565b820191905f5260205f20905b81548152906001019060200180831161056757829003601f168201915b50505050509080600101805461059990610991565b80601f01602080910402602001604051908101604052809291908181526020018280546105c590610991565b80156106105780601f106105e757610100808354040283529160200191610610565b820191905f5260205f20905b8154815290600101906020018083116105f357829003601f168201915b505050505090806002015f9054906101000a900460ff16905083565b5f604051905090565b5f80fd5b5f80fd5b5f80fd5b5f80fd5b5f601f19601f8301169050919050565b7f4e487b71000000000000000000000000000000000000000000000000000000005f52604160045260245ffd5b61068b82610645565b810181811067ffffffffffffffff821117156106aa576106a9610655565b5b80604052505050565b5f6106bc61062c565b90506106c88282610682565b919050565b5f67ffffffffffffffff8211156106e7576106e6610655565b5b6106f082610645565b9050602081019050919050565b828183375f83830152505050565b5f61071d610718846106cd565b6106b3565b90508281526020810184848401111561073957610738610641565b5b6107448482856106fd565b509392505050565b5f82601f8301126107605761075f61063d565b5b813561077084826020860161070b565b91505092915050565b5f806040838503121561078f5761078e610635565b5b5f83013567ffffffffffffffff8111156107ac576107ab610639565b5b6107b88582860161074c565b925050602083013567ffffffffffffffff8111156107d9576107d8610639565b5b6107e58582860161074c565b9150509250929050565b5f73ffffffffffffffffffffffffffffffffffffffff82169050919050565b5f610818826107ef565b9050919050565b6108288161080e565b8114610832575f80fd5b50565b5f813590506108438161081f565b92915050565b5f6020828403121561085e5761085d610635565b5b5f61086b84828501610835565b91505092915050565b5f8115159050919050565b61088881610874565b82525050565b5f6020820190506108a15f83018461087f565b92915050565b5f81519050919050565b5f82825260208201905092915050565b5f5b838110156108de5780820151818401526020810190506108c3565b5f8484015250505050565b5f6108f3826108a7565b6108fd81856108b1565b935061090d8185602086016108c1565b61091681610645565b840191505092915050565b5f6060820190508181035f83015261093981866108e9565b9050818103602083015261094d81856108e9565b905061095c604083018461087f565b949350505050565b7f4e487b71000000000000000000000000000000000000000000000000000000005f52602260045260245ffd5b5f60028204905060018216806109a857607f821691505b6020821081036109bb576109ba610964565b5b50919050565b5f819050815f5260205f209050919050565b5f6020601f8301049050919050565b5f82821b905092915050565b5f60088302610a1d7fffffffffffffffffffffffffffffffffffffffffffffffffffffffffffffffff826109e2565b610a2786836109e2565b95508019841693508086168417925050509392505050565b5f819050919050565b5f819050919050565b5f610a6b610a66610a6184610a3f565b610a48565b610a3f565b9050919050565b5f819050919050565b610a8483610a51565b610a98610a9082610a72565b8484546109ee565b825550505050565b5f90565b610aac610aa0565b610ab7818484610a7b565b505050565b5b81811015610ada57610acf5f82610aa4565b600181019050610abd565b5050565b601f821115610b1f57610af0816109c1565b610af9846109d3565b81016020851015610b08578190505b610b1c610b14856109d3565b830182610abc565b50505b505050565b5f82821c905092915050565b5f610b3f5f1984600802610b24565b1980831691505092915050565b5f610b578383610b30565b9150826002028217905092915050565b610b70826108a7565b67ffffffffffffffff811115610b8957610b88610655565b5b610b938254610991565b610b9e828285610ade565b5f60209050601f831160018114610bcf575f8415610bbd578287015190505b610bc78582610b4c565b865550610c2e565b601f198416610bdd866109c1565b5f5b82811015610c0457848901518255600182019150602085019450602081019050610bdf565b86831015610c215784890151610c1d601f891682610b30565b8355505b6001600288020188555050505b505050505050565b7f596f7520617265206e6f7420617574686f72697a656420746f207665726966795f82015250565b5f610c6a6020836108b1565b9150610c7582610c36565b602082019050919050565b5f6020820190508181035f830152610c9781610c5e565b905091905056fea2646970667358221220d599628aaac684639da885794b5b28874c64a2a2eafb9e1beb24b7e569416bd564736f6c63430008150033",
  "immutableReferences": {},
  "source": "pragma solidity ^0.8.0;\r\n\r\ncontract Identity {\r\n    struct User {\r\n        string name;\r\n        string email;\r\n        bool isVerified;\r\n    }\r\n\r\n    mapping(address => User) public users;\r\n    mapping(address => bool) public verifiers;\r\n\r\n    function register(string memory _name, string memory _email) public {\r\n        users[msg.sender] = User(_name, _email, false);\r\n    }\r\n\r\n    function verify(address _user) public {\r\n        require(verifiers[msg.sender], \"You are not authorized to verify\");\r\n        users[_user].isVerified = true;\r\n    }\r\n\r\n    function addVerifier(address _verifier) public {\r\n        // In a real application, you would have more complex access control here\r\n        verifiers[_verifier] = true;\r\n    }\r\n\r\n    function getUser(address _user) public view returns (string memory, string memory, bool) {\r\n        User memory user = users[_user];\r\n        return (user.name, user.email, user.isVerified);\r\n    }\r\n}\r\n",
  "sourcePath": "C:\\Users\\Senthil Kumar\\decentralized-id\\contracts\\Identity.sol",
  "compiler": {
    "name": "solc",
    "version": "0.8.21+commit.d9974bed.Emscripten.clang"
  },
  "schemaVersion": "3.4.16",
  "updatedAt": "2024-06-30T09:41:09.553Z",
  "devdoc": {
    "kind": "dev",
    "methods": {},
    "version": 1
  },
  "userdoc": {
    "kind": "user",
    "methods": {},
    "version": 1
  }
}